:1000000009C021C0CCC079C01EC01DC01CC01BC00F
:100010001AC019C011241FBECFE9CDBF10E0A0E661
:10002000B0E0E2E3F2E002C005900D92A637B1071E
:10003000D9F720E0A6E7B0E001C01D92AE38B207C4
:10004000E1F7E0D0F4C0DCCF84E1E7E7F0E0DF01E6
:100050001D928A95E9F710928B0012BE08951092B6
:100060008B0012BE8091610086BF8091600089BDC7
:1000700083EC8FBD82E083BF89BF08952091790012
:1000800030917A00232B41F4E7E7F0E00DC02281A4
:100090003381232B19F408C0E7E7F0E0349620E021
:1000A000EB38F207A0F30895938382837183608312
:1000B0000895D5DF85B7877E85BF07E710E0A8954F
:1000C00085B7806285BF889585B78F7D85BFE8013C
:1000D000EA81FB81309759F088819981009721F05E
:1000E00001979983888303C009951B821A822496FD
:1000F00080E0CB38D80760F3E2CF1F920F920FB6A3
:100100000F9211248F938091610086BF80916000CF
:1001100089BD80918B008F5F80938B008F910F90B2
:100120000FBE0F901F90189590917600E92FF0E088
:10013000EE0FFF1FEE0FFF1FEE59FF4F20916100E2
:100140008081820F809361002181821303C09F5FB1
:100150009093760080917600853011F410927600AD
:100160006281738184E990E089DF089598B382E029
:10017000892788BBB19B03C06AEE70E002C065E6C8
:1001800071E186EB90E07ADF089510928D00109275
:100190008C0088E085BB8BB780628BBF08951F926F
:1001A0000F920FB60F9211242F933F938F939F932B
:1001B00020918B00922F22B7822F08B601FE06C035
:1001C00020918B00922F9F5F22B7822FB39B05C097
:1001D00090938D0080938C000CC020918C00309106
:1001E0008D00821B930B8438934010F0C29A01C09B
:1001F000C2989F918F913F912F910F900FBE0F90BA
:100200001F9018958FE088BB87E087BB1DDF60E0FB
:1002100070E086EB90E032DF60E070E084E990E02F
:100220002DDFB3DF789445DF80E090E00895F89407
:02023000FFCFFE
:10023200010100012709027F0400FE21040002FFE0
:060242000400FE010400AF
:00000001FF
